{
  "contractName": "Drifters",
  "abi": [
    {
      "inputs": [
        {
          "internalType": "string",
          "name": "_name",
          "type": "string"
        },
        {
          "internalType": "string",
          "name": "_symbol",
          "type": "string"
        },
        {
          "internalType": "string",
          "name": "_initBaseURI",
          "type": "string"
        }
      ],
      "stateMutability": "nonpayable",
      "type": "constructor"
    },
    {
      "anonymous": false,
      "inputs": [
        {
          "indexed": true,
          "internalType": "address",
          "name": "owner",
          "type": "address"
        },
        {
          "indexed": true,
          "internalType": "address",
          "name": "approved",
          "type": "address"
        },
        {
          "indexed": true,
          "internalType": "uint256",
          "name": "tokenId",
          "type": "uint256"
        }
      ],
      "name": "Approval",
      "type": "event"
    },
    {
      "anonymous": false,
      "inputs": [
        {
          "indexed": true,
          "internalType": "address",
          "name": "owner",
          "type": "address"
        },
        {
          "indexed": true,
          "internalType": "address",
          "name": "operator",
          "type": "address"
        },
        {
          "indexed": false,
          "internalType": "bool",
          "name": "approved",
          "type": "bool"
        }
      ],
      "name": "ApprovalForAll",
      "type": "event"
    },
    {
      "anonymous": false,
      "inputs": [
        {
          "indexed": true,
          "internalType": "address",
          "name": "previousOwner",
          "type": "address"
        },
        {
          "indexed": true,
          "internalType": "address",
          "name": "newOwner",
          "type": "address"
        }
      ],
      "name": "OwnershipTransferred",
      "type": "event"
    },
    {
      "anonymous": false,
      "inputs": [
        {
          "indexed": true,
          "internalType": "address",
          "name": "from",
          "type": "address"
        },
        {
          "indexed": true,
          "internalType": "address",
          "name": "to",
          "type": "address"
        },
        {
          "indexed": true,
          "internalType": "uint256",
          "name": "tokenId",
          "type": "uint256"
        }
      ],
      "name": "Transfer",
      "type": "event"
    },
    {
      "inputs": [
        {
          "internalType": "address",
          "name": "to",
          "type": "address"
        },
        {
          "internalType": "uint256",
          "name": "tokenId",
          "type": "uint256"
        }
      ],
      "name": "approve",
      "outputs": [],
      "stateMutability": "nonpayable",
      "type": "function"
    },
    {
      "inputs": [
        {
          "internalType": "address",
          "name": "owner",
          "type": "address"
        }
      ],
      "name": "balanceOf",
      "outputs": [
        {
          "internalType": "uint256",
          "name": "",
          "type": "uint256"
        }
      ],
      "stateMutability": "view",
      "type": "function"
    },
    {
      "inputs": [],
      "name": "baseExtension",
      "outputs": [
        {
          "internalType": "string",
          "name": "",
          "type": "string"
        }
      ],
      "stateMutability": "view",
      "type": "function"
    },
    {
      "inputs": [],
      "name": "baseURI",
      "outputs": [
        {
          "internalType": "string",
          "name": "",
          "type": "string"
        }
      ],
      "stateMutability": "view",
      "type": "function"
    },
    {
      "inputs": [],
      "name": "cost",
      "outputs": [
        {
          "internalType": "uint256",
          "name": "",
          "type": "uint256"
        }
      ],
      "stateMutability": "view",
      "type": "function"
    },
    {
      "inputs": [
        {
          "internalType": "uint256",
          "name": "tokenId",
          "type": "uint256"
        }
      ],
      "name": "getApproved",
      "outputs": [
        {
          "internalType": "address",
          "name": "",
          "type": "address"
        }
      ],
      "stateMutability": "view",
      "type": "function"
    },
    {
      "inputs": [
        {
          "internalType": "address",
          "name": "owner",
          "type": "address"
        },
        {
          "internalType": "address",
          "name": "operator",
          "type": "address"
        }
      ],
      "name": "isApprovedForAll",
      "outputs": [
        {
          "internalType": "bool",
          "name": "",
          "type": "bool"
        }
      ],
      "stateMutability": "view",
      "type": "function"
    },
    {
      "inputs": [],
      "name": "isPrivateSaleActive",
      "outputs": [
        {
          "internalType": "bool",
          "name": "",
          "type": "bool"
        }
      ],
      "stateMutability": "view",
      "type": "function"
    },
    {
      "inputs": [],
      "name": "isPublicSaleActive",
      "outputs": [
        {
          "internalType": "bool",
          "name": "",
          "type": "bool"
        }
      ],
      "stateMutability": "view",
      "type": "function"
    },
    {
      "inputs": [],
      "name": "maxMintAmount",
      "outputs": [
        {
          "internalType": "uint256",
          "name": "",
          "type": "uint256"
        }
      ],
      "stateMutability": "view",
      "type": "function"
    },
    {
      "inputs": [],
      "name": "maxPrivateMintAmount",
      "outputs": [
        {
          "internalType": "uint256",
          "name": "",
          "type": "uint256"
        }
      ],
      "stateMutability": "view",
      "type": "function"
    },
    {
      "inputs": [],
      "name": "maxSupply",
      "outputs": [
        {
          "internalType": "uint256",
          "name": "",
          "type": "uint256"
        }
      ],
      "stateMutability": "view",
      "type": "function"
    },
    {
      "inputs": [],
      "name": "name",
      "outputs": [
        {
          "internalType": "string",
          "name": "",
          "type": "string"
        }
      ],
      "stateMutability": "view",
      "type": "function"
    },
    {
      "inputs": [],
      "name": "owner",
      "outputs": [
        {
          "internalType": "address",
          "name": "",
          "type": "address"
        }
      ],
      "stateMutability": "view",
      "type": "function"
    },
    {
      "inputs": [
        {
          "internalType": "uint256",
          "name": "tokenId",
          "type": "uint256"
        }
      ],
      "name": "ownerOf",
      "outputs": [
        {
          "internalType": "address",
          "name": "",
          "type": "address"
        }
      ],
      "stateMutability": "view",
      "type": "function"
    },
    {
      "inputs": [],
      "name": "privateSaleCost",
      "outputs": [
        {
          "internalType": "uint256",
          "name": "",
          "type": "uint256"
        }
      ],
      "stateMutability": "view",
      "type": "function"
    },
    {
      "inputs": [
        {
          "internalType": "address",
          "name": "",
          "type": "address"
        }
      ],
      "name": "privateSaleTracker",
      "outputs": [
        {
          "internalType": "uint256",
          "name": "",
          "type": "uint256"
        }
      ],
      "stateMutability": "view",
      "type": "function"
    },
    {
      "inputs": [],
      "name": "renounceOwnership",
      "outputs": [],
      "stateMutability": "nonpayable",
      "type": "function"
    },
    {
      "inputs": [
        {
          "internalType": "address",
          "name": "from",
          "type": "address"
        },
        {
          "internalType": "address",
          "name": "to",
          "type": "address"
        },
        {
          "internalType": "uint256",
          "name": "tokenId",
          "type": "uint256"
        }
      ],
      "name": "safeTransferFrom",
      "outputs": [],
      "stateMutability": "nonpayable",
      "type": "function"
    },
    {
      "inputs": [
        {
          "internalType": "address",
          "name": "from",
          "type": "address"
        },
        {
          "internalType": "address",
          "name": "to",
          "type": "address"
        },
        {
          "internalType": "uint256",
          "name": "tokenId",
          "type": "uint256"
        },
        {
          "internalType": "bytes",
          "name": "_data",
          "type": "bytes"
        }
      ],
      "name": "safeTransferFrom",
      "outputs": [],
      "stateMutability": "nonpayable",
      "type": "function"
    },
    {
      "inputs": [
        {
          "internalType": "address",
          "name": "operator",
          "type": "address"
        },
        {
          "internalType": "bool",
          "name": "approved",
          "type": "bool"
        }
      ],
      "name": "setApprovalForAll",
      "outputs": [],
      "stateMutability": "nonpayable",
      "type": "function"
    },
    {
      "inputs": [
        {
          "internalType": "bytes4",
          "name": "interfaceId",
          "type": "bytes4"
        }
      ],
      "name": "supportsInterface",
      "outputs": [
        {
          "internalType": "bool",
          "name": "",
          "type": "bool"
        }
      ],
      "stateMutability": "view",
      "type": "function"
    },
    {
      "inputs": [],
      "name": "symbol",
      "outputs": [
        {
          "internalType": "string",
          "name": "",
          "type": "string"
        }
      ],
      "stateMutability": "view",
      "type": "function"
    },
    {
      "inputs": [
        {
          "internalType": "uint256",
          "name": "index",
          "type": "uint256"
        }
      ],
      "name": "tokenByIndex",
      "outputs": [
        {
          "internalType": "uint256",
          "name": "",
          "type": "uint256"
        }
      ],
      "stateMutability": "view",
      "type": "function"
    },
    {
      "inputs": [
        {
          "internalType": "address",
          "name": "owner",
          "type": "address"
        },
        {
          "internalType": "uint256",
          "name": "index",
          "type": "uint256"
        }
      ],
      "name": "tokenOfOwnerByIndex",
      "outputs": [
        {
          "internalType": "uint256",
          "name": "",
          "type": "uint256"
        }
      ],
      "stateMutability": "view",
      "type": "function"
    },
    {
      "inputs": [],
      "name": "totalSupply",
      "outputs": [
        {
          "internalType": "uint256",
          "name": "",
          "type": "uint256"
        }
      ],
      "stateMutability": "view",
      "type": "function"
    },
    {
      "inputs": [
        {
          "internalType": "address",
          "name": "from",
          "type": "address"
        },
        {
          "internalType": "address",
          "name": "to",
          "type": "address"
        },
        {
          "internalType": "uint256",
          "name": "tokenId",
          "type": "uint256"
        }
      ],
      "name": "transferFrom",
      "outputs": [],
      "stateMutability": "nonpayable",
      "type": "function"
    },
    {
      "inputs": [
        {
          "internalType": "address",
          "name": "newOwner",
          "type": "address"
        }
      ],
      "name": "transferOwnership",
      "outputs": [],
      "stateMutability": "nonpayable",
      "type": "function"
    },
    {
      "inputs": [
        {
          "internalType": "address",
          "name": "",
          "type": "address"
        }
      ],
      "name": "whitelisted",
      "outputs": [
        {
          "internalType": "bool",
          "name": "",
          "type": "bool"
        }
      ],
      "stateMutability": "view",
      "type": "function"
    },
    {
      "inputs": [
        {
          "internalType": "uint256",
          "name": "_mintAmount",
          "type": "uint256"
        }
      ],
      "name": "teamMint",
      "outputs": [],
      "stateMutability": "payable",
      "type": "function"
    },
    {
      "inputs": [
        {
          "internalType": "uint256",
          "name": "_mintAmount",
          "type": "uint256"
        }
      ],
      "name": "publicMint",
      "outputs": [],
      "stateMutability": "payable",
      "type": "function"
    },
    {
      "inputs": [],
      "name": "togglePrivateSaleState",
      "outputs": [],
      "stateMutability": "nonpayable",
      "type": "function"
    },
    {
      "inputs": [
        {
          "internalType": "uint256",
          "name": "_mintAmount",
          "type": "uint256"
        }
      ],
      "name": "privateMint",
      "outputs": [],
      "stateMutability": "payable",
      "type": "function"
    },
    {
      "inputs": [
        {
          "internalType": "address",
          "name": "_owner",
          "type": "address"
        }
      ],
      "name": "walletOfOwner",
      "outputs": [
        {
          "internalType": "uint256[]",
          "name": "",
          "type": "uint256[]"
        }
      ],
      "stateMutability": "view",
      "type": "function"
    },
    {
      "inputs": [
        {
          "internalType": "uint256",
          "name": "tokenId",
          "type": "uint256"
        }
      ],
      "name": "tokenURI",
      "outputs": [
        {
          "internalType": "string",
          "name": "",
          "type": "string"
        }
      ],
      "stateMutability": "view",
      "type": "function"
    },
    {
      "inputs": [
        {
          "internalType": "uint256",
          "name": "_newCost",
          "type": "uint256"
        }
      ],
      "name": "setCost",
      "outputs": [],
      "stateMutability": "nonpayable",
      "type": "function"
    },
    {
      "inputs": [
        {
          "internalType": "uint256",
          "name": "_newmaxMintAmount",
          "type": "uint256"
        }
      ],
      "name": "setmaxMintAmount",
      "outputs": [],
      "stateMutability": "nonpayable",
      "type": "function"
    },
    {
      "inputs": [
        {
          "internalType": "string",
          "name": "_newBaseURI",
          "type": "string"
        }
      ],
      "name": "setBaseURI",
      "outputs": [],
      "stateMutability": "nonpayable",
      "type": "function"
    },
    {
      "inputs": [
        {
          "internalType": "string",
          "name": "_newBaseExtension",
          "type": "string"
        }
      ],
      "name": "setBaseExtension",
      "outputs": [],
      "stateMutability": "nonpayable",
      "type": "function"
    },
    {
      "inputs": [],
      "name": "togglePublicSaleState",
      "outputs": [],
      "stateMutability": "nonpayable",
      "type": "function"
    },
    {
      "inputs": [
        {
          "internalType": "address[]",
          "name": "_addresses",
          "type": "address[]"
        }
      ],
      "name": "whitelistUsers",
      "outputs": [],
      "stateMutability": "nonpayable",
      "type": "function"
    },
    {
      "inputs": [
        {
          "internalType": "address[]",
          "name": "_addresses",
          "type": "address[]"
        }
      ],
      "name": "removeWhitelistUsers",
      "outputs": [],
      "stateMutability": "nonpayable",
      "type": "function"
    },
    {
      "inputs": [],
      "name": "withdraw",
      "outputs": [],
      "stateMutability": "payable",
      "type": "function"
    }
  ],
  "bytecode": "0x60c06040526005608081905264173539b7b760d91b60a09081526200002891600c9190620008f1565b50670de0b6b3a7640000600d55612b67600e556003600f5567016345785d8a000060105560026011553480156200005e57600080fd5b50604051620033cc380380620033cc833981016040819052620000819162000a57565b8251839083906200009a906000906020850190620008f1565b508051620000b0906001906020840190620008f1565b505050620000cd620000c76200010360201b60201c565b62000107565b6012805460ff19908116909155601580549091169055620000ee8162000159565b620000fa606f620001c1565b50505062000c29565b3390565b600a80546001600160a01b038381166001600160a01b0319831681179093556040519116919082907f8be0079c531659141344cd1fd0a4f28419497f9722a3daafe3b4186f6b6457e090600090a35050565b600a546001600160a01b03163314620001a85760405162461bcd60e51b81526020600482018190526024820152600080516020620033ac83398151915260448201526064015b60405180910390fd5b8051620001bd90600b906020840190620008f1565b5050565b600a546001600160a01b031633146200020c5760405162461bcd60e51b81526020600482018190526024820152600080516020620033ac83398151915260448201526064016200019f565b60006200021860085490565b905060015b82811162000251576200023c3362000236838562000b3a565b62000256565b80620002488162000bdf565b9150506200021d565b505050565b620001bd8282604051806020016040528060008152506200027860201b60201c565b620002848383620002eb565b62000293600084848462000441565b620002515760405162461bcd60e51b815260206004820152603260248201526000805160206200338c83398151915260448201527131b2b4bb32b91034b6b83632b6b2b73a32b960711b60648201526084016200019f565b6001600160a01b038216620003435760405162461bcd60e51b815260206004820181905260248201527f4552433732313a206d696e7420746f20746865207a65726f206164647265737360448201526064016200019f565b6000818152600260205260409020546001600160a01b031615620003aa5760405162461bcd60e51b815260206004820152601c60248201527f4552433732313a20746f6b656e20616c7265616479206d696e7465640000000060448201526064016200019f565b620003b860008383620005aa565b6001600160a01b0382166000908152600360205260408120805460019290620003e390849062000b3a565b909155505060008181526002602052604080822080546001600160a01b0319166001600160a01b03861690811790915590518392907fddf252ad1be2c89b69c2b068fc378daa952ba7f163c4a11628f55a4df523b3ef908290a45050565b600062000462846001600160a01b03166200068660201b6200155f1760201c565b156200059e57604051630a85bd0160e11b81526001600160a01b0385169063150b7a02906200049c90339089908890889060040162000ae4565b602060405180830381600087803b158015620004b757600080fd5b505af1925050508015620004ea575060408051601f3d908101601f19168201909252620004e79181019062000a26565b60015b62000583573d8080156200051b576040519150601f19603f3d011682016040523d82523d6000602084013e62000520565b606091505b5080516200057b5760405162461bcd60e51b815260206004820152603260248201526000805160206200338c83398151915260448201527131b2b4bb32b91034b6b83632b6b2b73a32b960711b60648201526084016200019f565b805181602001fd5b6001600160e01b031916630a85bd0160e11b149050620005a2565b5060015b949350505050565b620005c28383836200025160201b620009ef1760201c565b6001600160a01b03831662000620576200061a81600880546000838152600960205260408120829055600182018355919091527ff3f7a9fe364faab93b216da50a3214154f22a0a2b415b23a84c8169e8b636ee30155565b62000646565b816001600160a01b0316836001600160a01b03161462000646576200064683826200068c565b6001600160a01b0382166200066057620002518162000739565b826001600160a01b0316826001600160a01b031614620002515762000251828262000817565b3b151590565b60006001620006a6846200086860201b62000ef51760201c565b620006b2919062000b55565b60008381526007602052604090205490915080821462000706576001600160a01b03841660009081526006602090815260408083208584528252808320548484528184208190558352600790915290208190555b5060009182526007602090815260408084208490556001600160a01b039094168352600681528383209183525290812055565b6008546000906200074d9060019062000b55565b600083815260096020526040812054600880549394509092849081106200078457634e487b7160e01b600052603260045260246000fd5b906000526020600020015490508060088381548110620007b457634e487b7160e01b600052603260045260246000fd5b6000918252602080832090910192909255828152600990915260408082208490558582528120556008805480620007fb57634e487b7160e01b600052603160045260246000fd5b6001900381819060005260206000200160009055905550505050565b60006200082f836200086860201b62000ef51760201c565b6001600160a01b039093166000908152600660209081526040808320868452825280832085905593825260079052919091209190915550565b60006001600160a01b038216620008d55760405162461bcd60e51b815260206004820152602a60248201527f4552433732313a2062616c616e636520717565727920666f7220746865207a65604482015269726f206164647265737360b01b60648201526084016200019f565b506001600160a01b031660009081526003602052604090205490565b828054620008ff9062000ba2565b90600052602060002090601f0160209004810192826200092357600085556200096e565b82601f106200093e57805160ff19168380011785556200096e565b828001600101855582156200096e579182015b828111156200096e57825182559160200191906001019062000951565b506200097c92915062000980565b5090565b5b808211156200097c576000815560010162000981565b600082601f830112620009a8578081fd5b81516001600160401b0380821115620009c557620009c562000c13565b604051601f8301601f19908116603f01168101908282118183101715620009f057620009f062000c13565b8160405283815286602085880101111562000a09578485fd5b62000a1c84602083016020890162000b6f565b9695505050505050565b60006020828403121562000a38578081fd5b81516001600160e01b03198116811462000a50578182fd5b9392505050565b60008060006060848603121562000a6c578182fd5b83516001600160401b038082111562000a83578384fd5b62000a918783880162000997565b9450602086015191508082111562000aa7578384fd5b62000ab58783880162000997565b9350604086015191508082111562000acb578283fd5b5062000ada8682870162000997565b9150509250925092565b600060018060a01b03808716835280861660208401525083604083015260806060830152825180608084015262000b238160a085016020870162000b6f565b601f01601f19169190910160a00195945050505050565b6000821982111562000b505762000b5062000bfd565b500190565b60008282101562000b6a5762000b6a62000bfd565b500390565b60005b8381101562000b8c57818101518382015260200162000b72565b8381111562000b9c576000848401525b50505050565b600181811c9082168062000bb757607f821691505b6020821081141562000bd957634e487b7160e01b600052602260045260246000fd5b50919050565b600060001982141562000bf65762000bf662000bfd565b5060010190565b634e487b7160e01b600052601160045260246000fd5b634e487b7160e01b600052604160045260246000fd5b6127538062000c396000396000f3fe60806040526004361061025c5760003560e01c8063715018a611610144578063c6682862116100b6578063da3ef23f1161007a578063da3ef23f1461069b578063e5827b33146106bb578063e985e9c5146106e8578063edec5f2714610731578063f2fde38b14610751578063fa6946201461077157600080fd5b8063c668286214610606578063c87b56dd1461061b578063d5abeb011461063b578063d8a9e1e914610651578063d936547e1461066b57600080fd5b80639685f591116101085780639685f59114610569578063a22cb4651461057e578063abfe40a81461059e578063acde7f70146105b1578063b2e13111146105c6578063b88d4fde146105e657600080fd5b8063715018a6146104eb5780637f00c7a6146105005780638da5cb5b146105205780638e535d681461053e57806395d89b411461055457600080fd5b80632f745c59116101dd57806344a0d68a116101a157806344a0d68a146104365780634f6ccce71461045657806355f804b3146104765780636352211e146104965780636c0360eb146104b657806370a08231146104cb57600080fd5b80632f745c59146103ae5780632fbba115146103ce5780633ccfd60b146103e157806342842e0e146103e9578063438b63001461040957600080fd5b806318160ddd1161022457806318160ddd146103365780631e84c4131461034b578063239c70ae1461036557806323b872dd1461037b5780632db115441461039b57600080fd5b806301ffc9a71461026157806306fdde0314610296578063081812fc146102b8578063095ea7b3146102f057806313faede614610312575b600080fd5b34801561026d57600080fd5b5061028161027c3660046122ac565b610787565b60405190151581526020015b60405180910390f35b3480156102a257600080fd5b506102ab6107b2565b60405161028d91906124b1565b3480156102c457600080fd5b506102d86102d336600461232a565b610844565b6040516001600160a01b03909116815260200161028d565b3480156102fc57600080fd5b5061031061030b3660046121d4565b6108de565b005b34801561031e57600080fd5b50610328600d5481565b60405190815260200161028d565b34801561034257600080fd5b50600854610328565b34801561035757600080fd5b506015546102819060ff1681565b34801561037157600080fd5b50610328600f5481565b34801561038757600080fd5b506103106103963660046120e6565b6109f4565b6103106103a936600461232a565b610a25565b3480156103ba57600080fd5b506103286103c93660046121d4565b610abf565b6103106103dc36600461232a565b610b55565b610310610bb6565b3480156103f557600080fd5b506103106104043660046120e6565b610c06565b34801561041557600080fd5b5061042961042436600461209a565b610c21565b60405161028d919061246d565b34801561044257600080fd5b5061031061045136600461232a565b610cdf565b34801561046257600080fd5b5061032861047136600461232a565b610d0e565b34801561048257600080fd5b506103106104913660046122e4565b610daf565b3480156104a257600080fd5b506102d86104b136600461232a565b610df0565b3480156104c257600080fd5b506102ab610e67565b3480156104d757600080fd5b506103286104e636600461209a565b610ef5565b3480156104f757600080fd5b50610310610f7c565b34801561050c57600080fd5b5061031061051b36600461232a565b610fb0565b34801561052c57600080fd5b50600a546001600160a01b03166102d8565b34801561054a57600080fd5b5061032860105481565b34801561056057600080fd5b506102ab610fdf565b34801561057557600080fd5b50610310610fee565b34801561058a57600080fd5b5061031061059936600461219a565b61102c565b6103106105ac36600461232a565b6110f1565b3480156105bd57600080fd5b506103106111e6565b3480156105d257600080fd5b506103106105e13660046121fd565b611224565b3480156105f257600080fd5b50610310610601366004612121565b6112c4565b34801561061257600080fd5b506102ab6112fc565b34801561062757600080fd5b506102ab61063636600461232a565b611309565b34801561064757600080fd5b50610328600e5481565b34801561065d57600080fd5b506012546102819060ff1681565b34801561067757600080fd5b5061028161068636600461209a565b60146020526000908152604090205460ff1681565b3480156106a757600080fd5b506103106106b63660046122e4565b6113e7565b3480156106c757600080fd5b506103286106d636600461209a565b60136020526000908152604090205481565b3480156106f457600080fd5b506102816107033660046120b4565b6001600160a01b03918216600090815260056020908152604080832093909416825291909152205460ff1690565b34801561073d57600080fd5b5061031061074c3660046121fd565b611424565b34801561075d57600080fd5b5061031061076c36600461209a565b6114c4565b34801561077d57600080fd5b5061032860115481565b60006001600160e01b0319821663780e9d6360e01b14806107ac57506107ac82611565565b92915050565b6060600080546107c19061265b565b80601f01602080910402602001604051908101604052809291908181526020018280546107ed9061265b565b801561083a5780601f1061080f5761010080835404028352916020019161083a565b820191906000526020600020905b81548152906001019060200180831161081d57829003601f168201915b5050505050905090565b6000818152600260205260408120546001600160a01b03166108c25760405162461bcd60e51b815260206004820152602c60248201527f4552433732313a20617070726f76656420717565727920666f72206e6f6e657860448201526b34b9ba32b73a103a37b5b2b760a11b60648201526084015b60405180910390fd5b506000908152600460205260409020546001600160a01b031690565b60006108e982610df0565b9050806001600160a01b0316836001600160a01b031614156109575760405162461bcd60e51b815260206004820152602160248201527f4552433732313a20617070726f76616c20746f2063757272656e74206f776e656044820152603960f91b60648201526084016108b9565b336001600160a01b038216148061097357506109738133610703565b6109e55760405162461bcd60e51b815260206004820152603860248201527f4552433732313a20617070726f76652063616c6c6572206973206e6f74206f7760448201527f6e6572206e6f7220617070726f76656420666f7220616c6c000000000000000060648201526084016108b9565b6109ef83836115b5565b505050565b6109fe3382611623565b610a1a5760405162461bcd60e51b81526004016108b99061254b565b6109ef83838361171a565b6000610a3060085490565b60155490915060ff16610a4257600080fd5b60008211610a4f57600080fd5b600f54821115610a5e57600080fd5b600e54610a6b83836125cd565b1115610a7657600080fd5b81600d54610a8491906125f9565b341015610a9057600080fd5b60015b8281116109ef57610aad33610aa883856125cd565b6118c5565b80610ab781612696565b915050610a93565b6000610aca83610ef5565b8210610b2c5760405162461bcd60e51b815260206004820152602b60248201527f455243373231456e756d657261626c653a206f776e657220696e646578206f7560448201526a74206f6620626f756e647360a81b60648201526084016108b9565b506001600160a01b03919091166000908152600660209081526040808320938352929052205490565b600a546001600160a01b03163314610b7f5760405162461bcd60e51b81526004016108b990612516565b6000610b8a60085490565b905060015b8281116109ef57610ba433610aa883856125cd565b80610bae81612696565b915050610b8f565b600a546001600160a01b03163314610be05760405162461bcd60e51b81526004016108b990612516565b60405133904780156108fc02916000818181858888f19350505050610c0457600080fd5b565b6109ef838383604051806020016040528060008152506112c4565b60606000610c2e83610ef5565b905060008167ffffffffffffffff811115610c5957634e487b7160e01b600052604160045260246000fd5b604051908082528060200260200182016040528015610c82578160200160208202803683370190505b50905060005b82811015610cd757610c9a8582610abf565b828281518110610cba57634e487b7160e01b600052603260045260246000fd5b602090810291909101015280610ccf81612696565b915050610c88565b509392505050565b600a546001600160a01b03163314610d095760405162461bcd60e51b81526004016108b990612516565b600d55565b6000610d1960085490565b8210610d7c5760405162461bcd60e51b815260206004820152602c60248201527f455243373231456e756d657261626c653a20676c6f62616c20696e646578206f60448201526b7574206f6620626f756e647360a01b60648201526084016108b9565b60088281548110610d9d57634e487b7160e01b600052603260045260246000fd5b90600052602060002001549050919050565b600a546001600160a01b03163314610dd95760405162461bcd60e51b81526004016108b990612516565b8051610dec90600b906020840190611f8d565b5050565b6000818152600260205260408120546001600160a01b0316806107ac5760405162461bcd60e51b815260206004820152602960248201527f4552433732313a206f776e657220717565727920666f72206e6f6e657869737460448201526832b73a103a37b5b2b760b91b60648201526084016108b9565b600b8054610e749061265b565b80601f0160208091040260200160405190810160405280929190818152602001828054610ea09061265b565b8015610eed5780601f10610ec257610100808354040283529160200191610eed565b820191906000526020600020905b815481529060010190602001808311610ed057829003601f168201915b505050505081565b60006001600160a01b038216610f605760405162461bcd60e51b815260206004820152602a60248201527f4552433732313a2062616c616e636520717565727920666f7220746865207a65604482015269726f206164647265737360b01b60648201526084016108b9565b506001600160a01b031660009081526003602052604090205490565b600a546001600160a01b03163314610fa65760405162461bcd60e51b81526004016108b990612516565b610c0460006118df565b600a546001600160a01b03163314610fda5760405162461bcd60e51b81526004016108b990612516565b600f55565b6060600180546107c19061265b565b600a546001600160a01b031633146110185760405162461bcd60e51b81526004016108b990612516565b6012805460ff19811660ff90911615179055565b6001600160a01b0382163314156110855760405162461bcd60e51b815260206004820152601960248201527f4552433732313a20617070726f766520746f2063616c6c65720000000000000060448201526064016108b9565b3360008181526005602090815260408083206001600160a01b03871680855290835292819020805460ff191686151590811790915590519081529192917f17307eab39ab6107e8899845ad3d59bd9653f200f220920489ca2b5937696c31910160405180910390a35050565b60006110fc60085490565b60125490915060ff1661110e57600080fd5b6000821161111b57600080fd5b60115482111561112a57600080fd5b601154336000908152601360205260409020541061114757600080fd5b3360009081526014602052604090205460ff16151560011461116857600080fd5b601154336000908152601360205260409020546111869084906125cd565b111561119157600080fd5b60015b8281116109ef576111a933610aa883856125cd565b336000908152601360205260409020546111c49060016125cd565b33600090815260136020526040902055806111de81612696565b915050611194565b600a546001600160a01b031633146112105760405162461bcd60e51b81526004016108b990612516565b6015805460ff19811660ff90911615179055565b600a546001600160a01b0316331461124e5760405162461bcd60e51b81526004016108b990612516565b60005b8151811015610dec5760006014600084848151811061128057634e487b7160e01b600052603260045260246000fd5b6020908102919091018101516001600160a01b03168252810191909152604001600020805460ff1916911515919091179055806112bc81612696565b915050611251565b6112ce3383611623565b6112ea5760405162461bcd60e51b81526004016108b99061254b565b6112f684848484611931565b50505050565b600c8054610e749061265b565b6000818152600260205260409020546060906001600160a01b03166113885760405162461bcd60e51b815260206004820152602f60248201527f4552433732314d657461646174613a2055524920717565727920666f72206e6f60448201526e3732bc34b9ba32b73a103a37b5b2b760891b60648201526084016108b9565b6000611392611964565b905060008151116113b257604051806020016040528060008152506113e0565b806113bc84611973565b600c6040516020016113d09392919061236e565b6040516020818303038152906040525b9392505050565b600a546001600160a01b031633146114115760405162461bcd60e51b81526004016108b990612516565b8051610dec90600c906020840190611f8d565b600a546001600160a01b0316331461144e5760405162461bcd60e51b81526004016108b990612516565b60005b8151811015610dec5760016014600084848151811061148057634e487b7160e01b600052603260045260246000fd5b6020908102919091018101516001600160a01b03168252810191909152604001600020805460ff1916911515919091179055806114bc81612696565b915050611451565b600a546001600160a01b031633146114ee5760405162461bcd60e51b81526004016108b990612516565b6001600160a01b0381166115535760405162461bcd60e51b815260206004820152602660248201527f4f776e61626c653a206e6577206f776e657220697320746865207a65726f206160448201526564647265737360d01b60648201526084016108b9565b61155c816118df565b50565b3b151590565b60006001600160e01b031982166380ac58cd60e01b148061159657506001600160e01b03198216635b5e139f60e01b145b806107ac57506301ffc9a760e01b6001600160e01b03198316146107ac565b600081815260046020526040902080546001600160a01b0319166001600160a01b03841690811790915581906115ea82610df0565b6001600160a01b03167f8c5be1e5ebec7d5bd14f71427d1e84f3dd0314c0f7b2291e5b200ac8c7c3b92560405160405180910390a45050565b6000818152600260205260408120546001600160a01b031661169c5760405162461bcd60e51b815260206004820152602c60248201527f4552433732313a206f70657261746f7220717565727920666f72206e6f6e657860448201526b34b9ba32b73a103a37b5b2b760a11b60648201526084016108b9565b60006116a783610df0565b9050806001600160a01b0316846001600160a01b031614806116e25750836001600160a01b03166116d784610844565b6001600160a01b0316145b8061171257506001600160a01b0380821660009081526005602090815260408083209388168352929052205460ff165b949350505050565b826001600160a01b031661172d82610df0565b6001600160a01b0316146117955760405162461bcd60e51b815260206004820152602960248201527f4552433732313a207472616e73666572206f6620746f6b656e2074686174206960448201526839903737ba1037bbb760b91b60648201526084016108b9565b6001600160a01b0382166117f75760405162461bcd60e51b8152602060048201526024808201527f4552433732313a207472616e7366657220746f20746865207a65726f206164646044820152637265737360e01b60648201526084016108b9565b611802838383611a8d565b61180d6000826115b5565b6001600160a01b0383166000908152600360205260408120805460019290611836908490612618565b90915550506001600160a01b03821660009081526003602052604081208054600192906118649084906125cd565b909155505060008181526002602052604080822080546001600160a01b0319166001600160a01b0386811691821790925591518493918716917fddf252ad1be2c89b69c2b068fc378daa952ba7f163c4a11628f55a4df523b3ef91a4505050565b610dec828260405180602001604052806000815250611b45565b600a80546001600160a01b038381166001600160a01b0319831681179093556040519116919082907f8be0079c531659141344cd1fd0a4f28419497f9722a3daafe3b4186f6b6457e090600090a35050565b61193c84848461171a565b61194884848484611b78565b6112f65760405162461bcd60e51b81526004016108b9906124c4565b6060600b80546107c19061265b565b6060816119975750506040805180820190915260018152600360fc1b602082015290565b8160005b81156119c157806119ab81612696565b91506119ba9050600a836125e5565b915061199b565b60008167ffffffffffffffff8111156119ea57634e487b7160e01b600052604160045260246000fd5b6040519080825280601f01601f191660200182016040528015611a14576020820181803683370190505b5090505b841561171257611a29600183612618565b9150611a36600a866126b1565b611a419060306125cd565b60f81b818381518110611a6457634e487b7160e01b600052603260045260246000fd5b60200101906001600160f81b031916908160001a905350611a86600a866125e5565b9450611a18565b6001600160a01b038316611ae857611ae381600880546000838152600960205260408120829055600182018355919091527ff3f7a9fe364faab93b216da50a3214154f22a0a2b415b23a84c8169e8b636ee30155565b611b0b565b816001600160a01b0316836001600160a01b031614611b0b57611b0b8382611c85565b6001600160a01b038216611b22576109ef81611d22565b826001600160a01b0316826001600160a01b0316146109ef576109ef8282611dfb565b611b4f8383611e3f565b611b5c6000848484611b78565b6109ef5760405162461bcd60e51b81526004016108b9906124c4565b60006001600160a01b0384163b15611c7a57604051630a85bd0160e11b81526001600160a01b0385169063150b7a0290611bbc903390899088908890600401612430565b602060405180830381600087803b158015611bd657600080fd5b505af1925050508015611c06575060408051601f3d908101601f19168201909252611c03918101906122c8565b60015b611c60573d808015611c34576040519150601f19603f3d011682016040523d82523d6000602084013e611c39565b606091505b508051611c585760405162461bcd60e51b81526004016108b9906124c4565b805181602001fd5b6001600160e01b031916630a85bd0160e11b149050611712565b506001949350505050565b60006001611c9284610ef5565b611c9c9190612618565b600083815260076020526040902054909150808214611cef576001600160a01b03841660009081526006602090815260408083208584528252808320548484528184208190558352600790915290208190555b5060009182526007602090815260408084208490556001600160a01b039094168352600681528383209183525290812055565b600854600090611d3490600190612618565b60008381526009602052604081205460088054939450909284908110611d6a57634e487b7160e01b600052603260045260246000fd5b906000526020600020015490508060088381548110611d9957634e487b7160e01b600052603260045260246000fd5b6000918252602080832090910192909255828152600990915260408082208490558582528120556008805480611ddf57634e487b7160e01b600052603160045260246000fd5b6001900381819060005260206000200160009055905550505050565b6000611e0683610ef5565b6001600160a01b039093166000908152600660209081526040808320868452825280832085905593825260079052919091209190915550565b6001600160a01b038216611e955760405162461bcd60e51b815260206004820181905260248201527f4552433732313a206d696e7420746f20746865207a65726f206164647265737360448201526064016108b9565b6000818152600260205260409020546001600160a01b031615611efa5760405162461bcd60e51b815260206004820152601c60248201527f4552433732313a20746f6b656e20616c7265616479206d696e7465640000000060448201526064016108b9565b611f0660008383611a8d565b6001600160a01b0382166000908152600360205260408120805460019290611f2f9084906125cd565b909155505060008181526002602052604080822080546001600160a01b0319166001600160a01b03861690811790915590518392907fddf252ad1be2c89b69c2b068fc378daa952ba7f163c4a11628f55a4df523b3ef908290a45050565b828054611f999061265b565b90600052602060002090601f016020900481019282611fbb5760008555612001565b82601f10611fd457805160ff1916838001178555612001565b82800160010185558215612001579182015b82811115612001578251825591602001919060010190611fe6565b5061200d929150612011565b5090565b5b8082111561200d5760008155600101612012565b600067ffffffffffffffff831115612040576120406126f1565b612053601f8401601f191660200161259c565b905082815283838301111561206757600080fd5b828260208301376000602084830101529392505050565b80356001600160a01b038116811461209557600080fd5b919050565b6000602082840312156120ab578081fd5b6113e08261207e565b600080604083850312156120c6578081fd5b6120cf8361207e565b91506120dd6020840161207e565b90509250929050565b6000806000606084860312156120fa578081fd5b6121038461207e565b92506121116020850161207e565b9150604084013590509250925092565b60008060008060808587031215612136578081fd5b61213f8561207e565b935061214d6020860161207e565b925060408501359150606085013567ffffffffffffffff81111561216f578182fd5b8501601f8101871361217f578182fd5b61218e87823560208401612026565b91505092959194509250565b600080604083850312156121ac578182fd5b6121b58361207e565b9150602083013580151581146121c9578182fd5b809150509250929050565b600080604083850312156121e6578182fd5b6121ef8361207e565b946020939093013593505050565b6000602080838503121561220f578182fd5b823567ffffffffffffffff80821115612226578384fd5b818501915085601f830112612239578384fd5b81358181111561224b5761224b6126f1565b8060051b915061225c84830161259c565b8181528481019084860184860187018a1015612276578788fd5b8795505b8386101561229f5761228b8161207e565b83526001959095019491860191860161227a565b5098975050505050505050565b6000602082840312156122bd578081fd5b81356113e081612707565b6000602082840312156122d9578081fd5b81516113e081612707565b6000602082840312156122f5578081fd5b813567ffffffffffffffff81111561230b578182fd5b8201601f8101841361231b578182fd5b61171284823560208401612026565b60006020828403121561233b578081fd5b5035919050565b6000815180845261235a81602086016020860161262f565b601f01601f19169290920160200192915050565b6000845160206123818285838a0161262f565b8551918401916123948184848a0161262f565b85549201918390600181811c90808316806123b057607f831692505b8583108114156123ce57634e487b7160e01b88526022600452602488fd5b8080156123e257600181146123f35761241f565b60ff1985168852838801955061241f565b60008b815260209020895b858110156124175781548a8201529084019088016123fe565b505083880195505b50939b9a5050505050505050505050565b6001600160a01b038581168252841660208201526040810183905260806060820181905260009061246390830184612342565b9695505050505050565b6020808252825182820181905260009190848201906040850190845b818110156124a557835183529284019291840191600101612489565b50909695505050505050565b6020815260006113e06020830184612342565b60208082526032908201527f4552433732313a207472616e7366657220746f206e6f6e20455243373231526560408201527131b2b4bb32b91034b6b83632b6b2b73a32b960711b606082015260800190565b6020808252818101527f4f776e61626c653a2063616c6c6572206973206e6f7420746865206f776e6572604082015260600190565b60208082526031908201527f4552433732313a207472616e736665722063616c6c6572206973206e6f74206f6040820152701ddb995c881b9bdc88185c1c1c9bdd9959607a1b606082015260800190565b604051601f8201601f1916810167ffffffffffffffff811182821017156125c5576125c56126f1565b604052919050565b600082198211156125e0576125e06126c5565b500190565b6000826125f4576125f46126db565b500490565b6000816000190483118215151615612613576126136126c5565b500290565b60008282101561262a5761262a6126c5565b500390565b60005b8381101561264a578181015183820152602001612632565b838111156112f65750506000910152565b600181811c9082168061266f57607f821691505b6020821081141561269057634e487b7160e01b600052602260045260246000fd5b50919050565b60006000198214156126aa576126aa6126c5565b5060010190565b6000826126c0576126c06126db565b500690565b634e487b7160e01b600052601160045260246000fd5b634e487b7160e01b600052601260045260246000fd5b634e487b7160e01b600052604160045260246000fd5b6001600160e01b03198116811461155c57600080fdfea2646970667358221220ae7944c3c5166d01842a4dabd7ba287357dfb7a0d2b65cbcb421d6368ede215f64736f6c634300080400334552433732313a207472616e7366657220746f206e6f6e2045524337323152654f776e61626c653a2063616c6c6572206973206e6f7420746865206f776e6572",
  "immutableReferences": {},
  "source": "// SPDX-License-Identifier: GPL-3.0\r\n\r\n// Created by HashLips\r\n// The Nerdy Coder Clones\r\n\r\npragma solidity ^0.8.0;\r\n\r\nimport \"@openzeppelin/contracts/token/ERC721/extensions/ERC721Enumerable.sol\";\r\nimport \"@openzeppelin/contracts/access/Ownable.sol\";\r\n\r\ncontract Drifters is ERC721Enumerable, Ownable {\r\n  using Strings for uint256;\r\n\r\n  string public baseURI;\r\n  string public baseExtension = \".json\";\r\n  uint256 public cost = 1 * 10 ** 18;\r\n  uint256 public maxSupply = 11111;\r\n  uint256 public maxMintAmount = 3;\r\n\r\n  // Private Sale\r\n  uint256 public privateSaleCost = .1 * 10 ** 18;\r\n  uint256 public maxPrivateMintAmount = 2;\r\n  bool public isPrivateSaleActive;\r\n  mapping(address => uint256) public privateSaleTracker;\r\n  mapping(address => bool) public whitelisted;\r\n\r\n\r\n  bool public isPublicSaleActive;\r\n\r\n  constructor(\r\n    string memory _name,\r\n    string memory _symbol,\r\n    string memory _initBaseURI\r\n  ) ERC721(_name, _symbol) {\r\n    isPrivateSaleActive = false;\r\n    isPublicSaleActive = false;\r\n    setBaseURI(_initBaseURI);\r\n    teamMint(111);\r\n  }\r\n\r\n  function _baseURI() internal view virtual override returns (string memory) {\r\n    return baseURI;\r\n  }\r\n\r\n\r\n  function teamMint(uint256 _mintAmount) public payable onlyOwner {\r\n    uint256 supply = totalSupply();\r\n    for (uint256 i = 1; i <= _mintAmount; i++) {\r\n      _safeMint(msg.sender, supply + i);\r\n    }\r\n  }\r\n  \r\n  function publicMint(uint256 _mintAmount) public payable {\r\n    uint256 supply = totalSupply();\r\n    require(isPublicSaleActive);\r\n    require(_mintAmount > 0);\r\n    require(_mintAmount <= maxMintAmount);\r\n    require(supply + _mintAmount <= maxSupply);\r\n    require(msg.value >= cost * _mintAmount);\r\n\r\n    for (uint256 i = 1; i <= _mintAmount; i++) {\r\n      _safeMint(msg.sender, supply + i);\r\n    }\r\n  }\r\n\r\n  function togglePrivateSaleState() public onlyOwner{\r\n    isPrivateSaleActive = !isPrivateSaleActive;\r\n  }\r\n\r\n  function privateMint(uint256 _mintAmount) public payable {\r\n    uint256 supply = totalSupply();\r\n    require(isPrivateSaleActive);\r\n    require(_mintAmount > 0);\r\n    require(_mintAmount <= maxPrivateMintAmount);\r\n    require(privateSaleTracker[msg.sender] < maxPrivateMintAmount);\r\n    require(whitelisted[msg.sender] == true);\r\n    require(privateSaleTracker[msg.sender] + _mintAmount <= maxPrivateMintAmount);\r\n\r\n    \r\n    for (uint256 i = 1; i <= _mintAmount; i++) {\r\n      _safeMint(msg.sender, supply + i);\r\n      privateSaleTracker[msg.sender] = privateSaleTracker[msg.sender] + 1;\r\n    }\r\n    \r\n  }\r\n\r\n  function walletOfOwner(address _owner)\r\n    public\r\n    view\r\n    returns (uint256[] memory)\r\n  {\r\n    uint256 ownerTokenCount = balanceOf(_owner);\r\n    uint256[] memory tokenIds = new uint256[](ownerTokenCount);\r\n    for (uint256 i; i < ownerTokenCount; i++) {\r\n      tokenIds[i] = tokenOfOwnerByIndex(_owner, i);\r\n    }\r\n    return tokenIds;\r\n  }\r\n\r\n  function tokenURI(uint256 tokenId)\r\n    public\r\n    view\r\n    virtual\r\n    override\r\n    returns (string memory)\r\n  {\r\n    require(\r\n      _exists(tokenId),\r\n      \"ERC721Metadata: URI query for nonexistent token\"\r\n    );\r\n\r\n    string memory currentBaseURI = _baseURI();\r\n    return bytes(currentBaseURI).length > 0\r\n        ? string(abi.encodePacked(currentBaseURI, tokenId.toString(), baseExtension))\r\n        : \"\";\r\n  }\r\n\r\n  //only owner\r\n  function setCost(uint256 _newCost) public onlyOwner() {\r\n    cost = _newCost;\r\n  }\r\n\r\n  function setmaxMintAmount(uint256 _newmaxMintAmount) public onlyOwner() {\r\n    maxMintAmount = _newmaxMintAmount;\r\n  }\r\n\r\n  function setBaseURI(string memory _newBaseURI) public onlyOwner {\r\n    baseURI = _newBaseURI;\r\n  }\r\n\r\n  function setBaseExtension(string memory _newBaseExtension) public onlyOwner {\r\n    baseExtension = _newBaseExtension;\r\n  }\r\n\r\n  function togglePublicSaleState() public onlyOwner {\r\n    isPublicSaleActive = !isPublicSaleActive;\r\n  }\r\n \r\n function whitelistUsers(address[] memory _addresses) public onlyOwner {\r\n    for (uint256 i = 0; i < _addresses.length; i++) {\r\n        whitelisted[_addresses[i]] = true;\r\n    }\r\n  }\r\n \r\n  function removeWhitelistUsers(address[] memory _addresses) public onlyOwner {\r\n    for (uint256 i = 0; i < _addresses.length; i++) {\r\n        whitelisted[_addresses[i]] = false;\r\n    }\r\n  }\r\n\r\n  function withdraw() public payable onlyOwner {\r\n    require(payable(msg.sender).send(address(this).balance));\r\n  }\r\n}\r\n",
  "sourcePath": "C:\\Users\\Henry\\Desktop\\NFT\\example_nft_minter\\contracts\\SmartContract.sol",
  "compiler": {
    "name": "solc",
    "version": "0.8.4+commit.c7e474f2.Emscripten.clang"
  },
  "schemaVersion": "3.4.3",
  "updatedAt": "2021-09-24T03:37:48.999Z",
  "devdoc": {
    "kind": "dev",
    "methods": {
      "approve(address,uint256)": {
        "details": "See {IERC721-approve}."
      },
      "balanceOf(address)": {
        "details": "See {IERC721-balanceOf}."
      },
      "getApproved(uint256)": {
        "details": "See {IERC721-getApproved}."
      },
      "isApprovedForAll(address,address)": {
        "details": "See {IERC721-isApprovedForAll}."
      },
      "name()": {
        "details": "See {IERC721Metadata-name}."
      },
      "owner()": {
        "details": "Returns the address of the current owner."
      },
      "ownerOf(uint256)": {
        "details": "See {IERC721-ownerOf}."
      },
      "renounceOwnership()": {
        "details": "Leaves the contract without owner. It will not be possible to call `onlyOwner` functions anymore. Can only be called by the current owner. NOTE: Renouncing ownership will leave the contract without an owner, thereby removing any functionality that is only available to the owner."
      },
      "safeTransferFrom(address,address,uint256)": {
        "details": "See {IERC721-safeTransferFrom}."
      },
      "safeTransferFrom(address,address,uint256,bytes)": {
        "details": "See {IERC721-safeTransferFrom}."
      },
      "setApprovalForAll(address,bool)": {
        "details": "See {IERC721-setApprovalForAll}."
      },
      "supportsInterface(bytes4)": {
        "details": "See {IERC165-supportsInterface}."
      },
      "symbol()": {
        "details": "See {IERC721Metadata-symbol}."
      },
      "tokenByIndex(uint256)": {
        "details": "See {IERC721Enumerable-tokenByIndex}."
      },
      "tokenOfOwnerByIndex(address,uint256)": {
        "details": "See {IERC721Enumerable-tokenOfOwnerByIndex}."
      },
      "tokenURI(uint256)": {
        "details": "See {IERC721Metadata-tokenURI}."
      },
      "totalSupply()": {
        "details": "See {IERC721Enumerable-totalSupply}."
      },
      "transferFrom(address,address,uint256)": {
        "details": "See {IERC721-transferFrom}."
      },
      "transferOwnership(address)": {
        "details": "Transfers ownership of the contract to a new account (`newOwner`). Can only be called by the current owner."
      }
    },
    "version": 1
  },
  "userdoc": {
    "kind": "user",
    "methods": {},
    "version": 1
  }
}